{
  "contractName": "FundingFactory",
  "abi": [
    {
      "constant": true,
      "inputs": [],
      "name": "factoryManager",
      "outputs": [
        {
          "name": "",
          "type": "address"
        }
      ],
      "payable": false,
      "stateMutability": "view",
      "type": "function"
    },
    {
      "inputs": [],
      "payable": false,
      "stateMutability": "nonpayable",
      "type": "constructor"
    },
    {
      "constant": false,
      "inputs": [
        {
          "name": "_projectName",
          "type": "string"
        },
        {
          "name": "_targetMoney",
          "type": "uint256"
        },
        {
          "name": "_supportMoney",
          "type": "uint256"
        },
        {
          "name": "_duration",
          "type": "uint256"
        }
      ],
      "name": "createFunding",
      "outputs": [],
      "payable": false,
      "stateMutability": "nonpayable",
      "type": "function"
    },
    {
      "constant": true,
      "inputs": [],
      "name": "getAllFundings",
      "outputs": [
        {
          "name": "",
          "type": "address[]"
        }
      ],
      "payable": false,
      "stateMutability": "view",
      "type": "function"
    },
    {
      "constant": true,
      "inputs": [],
      "name": "getCreatorFundings",
      "outputs": [
        {
          "name": "",
          "type": "address[]"
        }
      ],
      "payable": false,
      "stateMutability": "view",
      "type": "function"
    },
    {
      "constant": true,
      "inputs": [],
      "name": "getSupportorFundings",
      "outputs": [
        {
          "name": "",
          "type": "address[]"
        }
      ],
      "payable": false,
      "stateMutability": "view",
      "type": "function"
    }
  ],
  "bytecode": "0x608060405234801561001057600080fd5b5033600360006101000a81548173ffffffffffffffffffffffffffffffffffffffff021916908373ffffffffffffffffffffffffffffffffffffffff16021790555061005a6100bc565b604051809103906000f080158015610076573d6000803e3d6000fd5b50600260006101000a81548173ffffffffffffffffffffffffffffffffffffffff021916908373ffffffffffffffffffffffffffffffffffffffff1602179055506100cc565b60405161030a80611ce183390190565b611c06806100db6000396000f30060806040526004361061006d576000357c0100000000000000000000000000000000000000000000000000000000900463ffffffff168063032b5a73146100725780632ab103cc146100c957806362786e171461013557806372a3143c146101bc578063fc93110a14610228575b600080fd5b34801561007e57600080fd5b50610087610294565b604051808273ffffffffffffffffffffffffffffffffffffffff1673ffffffffffffffffffffffffffffffffffffffff16815260200191505060405180910390f35b3480156100d557600080fd5b506100de6102ba565b6040518080602001828103825283818151815260200191508051906020019060200280838360005b83811015610121578082015181840152602081019050610106565b505050509050019250505060405180910390f35b34801561014157600080fd5b506101ba600480360381019080803590602001908201803590602001908080601f016020809104026020016040519081016040528093929190818152602001838380828437820191505050505050919291929080359060200190929190803590602001909291908035906020019092919050505061040f565b005b3480156101c857600080fd5b506101d161065a565b6040518080602001828103825283818151815260200191508051906020019060200280838360005b838110156102145780820151818401526020810190506101f9565b505050509050019250505060405180910390f35b34801561023457600080fd5b5061023d6106e8565b6040518080602001828103825283818151815260200191508051906020019060200280838360005b83811015610280578082015181840152602081019050610265565b505050509050019250505060405180910390f35b600360009054906101000a900473ffffffffffffffffffffffffffffffffffffffff1681565b6060600260009054906101000a900473ffffffffffffffffffffffffffffffffffffffff1673ffffffffffffffffffffffffffffffffffffffff1663ad0a4f32336040518263ffffffff167c0100000000000000000000000000000000000000000000000000000000028152600401808273ffffffffffffffffffffffffffffffffffffffff1673ffffffffffffffffffffffffffffffffffffffff168152602001915050600060405180830381600087803b15801561037957600080fd5b505af115801561038d573d6000803e3d6000fd5b505050506040513d6000823e3d601f19601f8201168201806040525060208110156103b757600080fd5b8101908080516401000000008111156103cf57600080fd5b828101905060208101848111156103e557600080fd5b815185602082028301116401000000008211171561040257600080fd5b5050929190505050905090565b60008484848433600260009054906101000a900473ffffffffffffffffffffffffffffffffffffffff166104416107b3565b80806020018781526020018681526020018581526020018473ffffffffffffffffffffffffffffffffffffffff1673ffffffffffffffffffffffffffffffffffffffff1681526020018373ffffffffffffffffffffffffffffffffffffffff1673ffffffffffffffffffffffffffffffffffffffff168152602001828103825288818151815260200191508051906020019080838360005b838110156104f45780820151818401526020810190506104d9565b50505050905090810190601f1680156105215780820380516001836020036101000a031916815260200191505b50975050505050505050604051809103906000f080158015610547573d6000803e3d6000fd5b509050600160003373ffffffffffffffffffffffffffffffffffffffff1673ffffffffffffffffffffffffffffffffffffffff1681526020019081526020016000208190806001815401808255809150509060018203906000526020600020016000909192909190916101000a81548173ffffffffffffffffffffffffffffffffffffffff021916908373ffffffffffffffffffffffffffffffffffffffff1602179055505060008190806001815401808255809150509060018203906000526020600020016000909192909190916101000a81548173ffffffffffffffffffffffffffffffffffffffff021916908373ffffffffffffffffffffffffffffffffffffffff160217905550505050505050565b606060008054806020026020016040519081016040528092919081815260200182805480156106de57602002820191906000526020600020905b8160009054906101000a900473ffffffffffffffffffffffffffffffffffffffff1673ffffffffffffffffffffffffffffffffffffffff1681526020019060010190808311610694575b5050505050905090565b6060600160003373ffffffffffffffffffffffffffffffffffffffff1673ffffffffffffffffffffffffffffffffffffffff1681526020019081526020016000208054806020026020016040519081016040528092919081815260200182805480156107a957602002820191906000526020600020905b8160009054906101000a900473ffffffffffffffffffffffffffffffffffffffff1673ffffffffffffffffffffffffffffffffffffffff168152602001906001019080831161075f575b5050505050905090565b604051611417806107c483390190560060806040523480156200001157600080fd5b506040516200141738038062001417833981018060405281019080805182019291906020018051906020019092919080519060200190929190805190602001909291908051906020019092919080519060200190929190505050816000806101000a81548173ffffffffffffffffffffffffffffffffffffffff021916908373ffffffffffffffffffffffffffffffffffffffff1602179055508560029080519060200190620000c392919062000128565b50846003819055508360048190555082420160058190555080600660006101000a81548173ffffffffffffffffffffffffffffffffffffffff021916908373ffffffffffffffffffffffffffffffffffffffff160217905550505050505050620001d7565b828054600181600116156101000203166002900490600052602060002090601f016020900481019282601f106200016b57805160ff19168380011785556200019c565b828001600101855582156200019c579182015b828111156200019b5782518255916020019190600101906200017e565b5b509050620001ab9190620001af565b5090565b620001d491905b80821115620001d0576000816000905550600101620001b6565b5090565b90565b61123080620001e76000396000f3006080604052600436106100e6576000357c0100000000000000000000000000000000000000000000000000000000900463ffffffff16806303441006146100eb578063119f87471461011857806312065fe0146101225780633197cbb61461014d5780633fad183414610178578063481c6a75146101a357806363b393d8146101fa5780636d052b37146102255780637c610a7a1461031e57806381d12c58146103495780638a9cfd55146104455780638d7cdb91146104d85780639a33e30014610503578063a5d5c5dc14610593578063d7d1bbdb146105be578063edc10df0146105eb575b600080fd5b3480156100f757600080fd5b5061011660048036038101908080359060200190929190505050610657565b005b610120610786565b005b34801561012e57600080fd5b506101376109be565b6040518082815260200191505060405180910390f35b34801561015957600080fd5b506101626109dd565b6040518082815260200191505060405180910390f35b34801561018457600080fd5b5061018d6109e3565b6040518082815260200191505060405180910390f35b3480156101af57600080fd5b506101b86109f0565b604051808273ffffffffffffffffffffffffffffffffffffffff1673ffffffffffffffffffffffffffffffffffffffff16815260200191505060405180910390f35b34801561020657600080fd5b5061020f610a15565b6040518082815260200191505060405180910390f35b34801561023157600080fd5b5061025060048036038101908080359060200190929190505050610a22565b60405180806020018781526020018673ffffffffffffffffffffffffffffffffffffffff1673ffffffffffffffffffffffffffffffffffffffff16815260200185151515158152602001848152602001838152602001828103825288818151815260200191508051906020019080838360005b838110156102de5780820151818401526020810190506102c3565b50505050905090810190601f16801561030b5780820380516001836020036101000a031916815260200191505b5097505050505050505060405180910390f35b34801561032a57600080fd5b50610333610bb6565b6040518082815260200191505060405180910390f35b34801561035557600080fd5b5061037460048036038101908080359060200190929190505050610bc2565b60405180806020018681526020018573ffffffffffffffffffffffffffffffffffffffff1673ffffffffffffffffffffffffffffffffffffffff1681526020018460028111156103c057fe5b60ff168152602001838152602001828103825287818151815260200191508051906020019080838360005b838110156104065780820151818401526020810190506103eb565b50505050905090810190601f1680156104335780820380516001836020036101000a031916815260200191505b50965050505050505060405180910390f35b34801561045157600080fd5b506104d6600480360381019080803590602001908201803590602001908080601f016020809104026020016040519081016040528093929190818152602001838380828437820191505050505050919291929080359060200190929190803573ffffffffffffffffffffffffffffffffffffffff169060200190929190505050610ccc565b005b3480156104e457600080fd5b506104ed610e54565b6040518082815260200191505060405180910390f35b34801561050f57600080fd5b50610518610e5a565b6040518080602001828103825283818151815260200191508051906020019080838360005b8381101561055857808201518184015260208101905061053d565b50505050905090810190601f1680156105855780820380516001836020036101000a031916815260200191505b509250505060405180910390f35b34801561059f57600080fd5b506105a8610ef8565b6040518082815260200191505060405180910390f35b3480156105ca57600080fd5b506105e960048036038101908080359060200190929190505050610efe565b005b3480156105f757600080fd5b50610600611080565b6040518080602001828103825283818151815260200191508051906020019060200280838360005b83811015610643578082015181840152602081019050610628565b505050509050019250505060405180910390f35b60008060009054906101000a900473ffffffffffffffffffffffffffffffffffffffff1673ffffffffffffffffffffffffffffffffffffffff163373ffffffffffffffffffffffffffffffffffffffff161415156106b457600080fd5b6008828154811015156106c357fe5b9060005260206000209060050201905060018054905060028260030154021115156106ed57600080fd5b8060020160009054906101000a900473ffffffffffffffffffffffffffffffffffffffff1673ffffffffffffffffffffffffffffffffffffffff166108fc82600101549081150290604051600060405180830381858888f1935050505015801561075b573d6000803e3d6000fd5b5060028160020160146101000a81548160ff0219169083600281111561077d57fe5b02179055505050565b6004543414151561079657600080fd5b60001515600760003373ffffffffffffffffffffffffffffffffffffffff1673ffffffffffffffffffffffffffffffffffffffff16815260200190815260200160002060009054906101000a900460ff1615151415156107f557600080fd5b60013390806001815401808255809150509060018203906000526020600020016000909192909190916101000a81548173ffffffffffffffffffffffffffffffffffffffff021916908373ffffffffffffffffffffffffffffffffffffffff160217905550506001600760003373ffffffffffffffffffffffffffffffffffffffff1673ffffffffffffffffffffffffffffffffffffffff16815260200190815260200160002060006101000a81548160ff021916908315150217905550600660009054906101000a900473ffffffffffffffffffffffffffffffffffffffff1673ffffffffffffffffffffffffffffffffffffffff16630b59d31933306040518363ffffffff167c0100000000000000000000000000000000000000000000000000000000028152600401808373ffffffffffffffffffffffffffffffffffffffff1673ffffffffffffffffffffffffffffffffffffffff1681526020018273ffffffffffffffffffffffffffffffffffffffff1673ffffffffffffffffffffffffffffffffffffffff16815260200192505050600060405180830381600087803b1580156109a457600080fd5b505af11580156109b8573d6000803e3d6000fd5b50505050565b60003073ffffffffffffffffffffffffffffffffffffffff1631905090565b60055481565b6000600880549050905090565b6000809054906101000a900473ffffffffffffffffffffffffffffffffffffffff1681565b6000600180549050905090565b6060600080600080600080600060088054905089101515610a4257600080fd5b600889815481101515610a5157fe5b906000526020600020906005020191508160040160003373ffffffffffffffffffffffffffffffffffffffff1673ffffffffffffffffffffffffffffffffffffffff16815260200190815260200160002060009054906101000a900460ff1690508160000182600101548360020160009054906101000a900473ffffffffffffffffffffffffffffffffffffffff168385600301548660020160149054906101000a900460ff166002811115610b0357fe5b858054600181600116156101000203166002900480601f016020809104026020016040519081016040528092919081815260200182805460018160011615610100020316600290048015610b985780601f10610b6d57610100808354040283529160200191610b98565b820191906000526020600020905b815481529060010190602001808311610b7b57829003601f168201915b50505050509550975097509750975097509750505091939550919395565b60004260055403905090565b600881815481101515610bd157fe5b9060005260206000209060050201600091509050806000018054600181600116156101000203166002900480601f016020809104026020016040519081016040528092919081815260200182805460018160011615610100020316600290048015610c7d5780601f10610c5257610100808354040283529160200191610c7d565b820191906000526020600020905b815481529060010190602001808311610c6057829003601f168201915b5050505050908060010154908060020160009054906101000a900473ffffffffffffffffffffffffffffffffffffffff16908060020160149054906101000a900460ff16908060030154905085565b610cd461110e565b6000809054906101000a900473ffffffffffffffffffffffffffffffffffffffff1673ffffffffffffffffffffffffffffffffffffffff163373ffffffffffffffffffffffffffffffffffffffff16141515610d2f57600080fd5b60a0604051908101604052808581526020018481526020018373ffffffffffffffffffffffffffffffffffffffff16815260200160006002811115610d7057fe5b815260200160008152509050600881908060018154018082558091505090600182039060005260206000209060050201600090919290919091506000820151816000019080519060200190610dc692919061115f565b506020820151816001015560408201518160020160006101000a81548173ffffffffffffffffffffffffffffffffffffffff021916908373ffffffffffffffffffffffffffffffffffffffff16021790555060608201518160020160146101000a81548160ff02191690836002811115610e3c57fe5b02179055506080820151816003015550505050505050565b60035481565b60028054600181600116156101000203166002900480601f016020809104026020016040519081016040528092919081815260200182805460018160011615610100020316600290048015610ef05780601f10610ec557610100808354040283529160200191610ef0565b820191906000526020600020905b815481529060010190602001808311610ed357829003601f168201915b505050505081565b60045481565b6000600760003373ffffffffffffffffffffffffffffffffffffffff1673ffffffffffffffffffffffffffffffffffffffff16815260200190815260200160002060009054906101000a900460ff161515610f5857600080fd5b600882815481101515610f6757fe5b90600052602060002090600502019050600015158160040160003373ffffffffffffffffffffffffffffffffffffffff1673ffffffffffffffffffffffffffffffffffffffff16815260200190815260200160002060009054906101000a900460ff161515141515610fd857600080fd5b60006002811115610fe557fe5b8160020160149054906101000a900460ff16600281111561100257fe5b14151561100e57600080fd5b806003016000815480929190600101919050555060018160040160003373ffffffffffffffffffffffffffffffffffffffff1673ffffffffffffffffffffffffffffffffffffffff16815260200190815260200160002060006101000a81548160ff0219169083151502179055505050565b6060600180548060200260200160405190810160405280929190818152602001828054801561110457602002820191906000526020600020905b8160009054906101000a900473ffffffffffffffffffffffffffffffffffffffff1673ffffffffffffffffffffffffffffffffffffffff16815260200190600101908083116110ba575b5050505050905090565b60a0604051908101604052806060815260200160008152602001600073ffffffffffffffffffffffffffffffffffffffff1681526020016000600281111561115257fe5b8152602001600081525090565b828054600181600116156101000203166002900490600052602060002090601f016020900481019282601f106111a057805160ff19168380011785556111ce565b828001600101855582156111ce579182015b828111156111cd5782518255916020019190600101906111b2565b5b5090506111db91906111df565b5090565b61120191905b808211156111fd5760008160009055506001016111e5565b5090565b905600a165627a7a723058201cb9a7f27c3df0a3faf5a1a606313e3ee7aec34fd089948663dde1ed66ed10520029a165627a7a72305820013896d48f55d5de08b381715f456dc5bbe198e5eb5ca8bdd449da24a598ad660029608060405234801561001057600080fd5b506102ea806100206000396000f30060806040526004361061004c576000357c0100000000000000000000000000000000000000000000000000000000900463ffffffff1680630b59d31914610051578063ad0a4f32146100b4575b600080fd5b34801561005d57600080fd5b506100b2600480360381019080803573ffffffffffffffffffffffffffffffffffffffff169060200190929190803573ffffffffffffffffffffffffffffffffffffffff16906020019092919050505061014c565b005b3480156100c057600080fd5b506100f5600480360381019080803573ffffffffffffffffffffffffffffffffffffffff1690602001909291905050506101f2565b6040518080602001828103825283818151815260200191508051906020019060200280838360005b8381101561013857808201518184015260208101905061011d565b505050509050019250505060405180910390f35b6000808373ffffffffffffffffffffffffffffffffffffffff1673ffffffffffffffffffffffffffffffffffffffff1681526020019081526020016000208190806001815401808255809150509060018203906000526020600020016000909192909190916101000a81548173ffffffffffffffffffffffffffffffffffffffff021916908373ffffffffffffffffffffffffffffffffffffffff160217905550505050565b60606000808373ffffffffffffffffffffffffffffffffffffffff1673ffffffffffffffffffffffffffffffffffffffff1681526020019081526020016000208054806020026020016040519081016040528092919081815260200182805480156102b257602002820191906000526020600020905b8160009054906101000a900473ffffffffffffffffffffffffffffffffffffffff1673ffffffffffffffffffffffffffffffffffffffff1681526020019060010190808311610268575b505050505090509190505600a165627a7a723058206a340a625d11f7fa857763ad9ad7b709ccd64e48810ba4594e43e7c6ae794d220029",
  "source": "pragma solidity ^0.4.24;\n\ncontract FundingFactory {\n    // 一、分析所有的众筹结构：\n    // 不用关心是谁创建的\n    address[ ] allFundings;\n\n    // 二、分析我发起的众筹结构：\n    // 1. 每一个人可以发起多个众筹 address[ ]\n    // 2. 每一个有自己的众筹集合\n\n    mapping(address => address[])   creatorFundings;\n\n    // 三、分析我参与的众筹结构：\n    //mapping(address => address[])   supportorFundings;\n    SupportsToFundings s2f;  //To -> 2  //0x0000000...\n\n    address public factoryManager; //工厂管理员\n\n    constructor()public {\n        factoryManager = msg.sender;\n        s2f = new SupportsToFundings();\n    }\n\n\n    // 创建合约方法（核心方法）\n    // 创建合约逻辑分析\n    // 1.  new 一个 Funding，传入对应数据：\"大黄蜂\", 400000, 1, 3600\n    // 2. 添加到creatorFundings中\n    // 3. 添加到allFundings中\n\n    function createFunding(string _projectName, uint256 _targetMoney, uint256 _supportMoney, uint256 _duration) public {\n\n\n        //把全局唯一的s2f合约，传递给Funding结构\n        //在Funding的support函数中调用setFunding方法，从而维护支持的众筹\n\n        address funding = new Funding(_projectName, _targetMoney, _supportMoney, _duration, msg.sender, s2f);\n\n        creatorFundings[msg.sender].push(funding);\n        allFundings.push(funding);\n    }\n\n    function getAllFundings() public view returns(address[]) {\n        return allFundings;\n    }\n\n    function getCreatorFundings() public view returns(address[]) {\n        return creatorFundings[msg.sender];\n    }\n\n    function getSupportorFundings() public view returns(address[]) {\n        return s2f.getFunding(msg.sender);\n    }\n}\n\n\n//+++++++++++++++++++++++++++++++++++++++++\n\ncontract SupportsToFundings {  //SupportsToFundings\n    mapping(address=>address[]) supportorFundings;  //众筹参与人的结构， Key是参与人，value是参与合约的集合\n\n    function setFunding(address owner, address funding) public { //参与一次众筹，key是参与人，value参与的众筹地址\n        supportorFundings[owner].push(funding);\n    }\n\n    function getFunding(address owner) public view returns(address[]){//key是参与人，value是所有参与的众筹的集合\n        return supportorFundings[owner];\n    }\n}\n\ncontract Funding {\n\n    // 1. 项目名字\n    // 2. 项目筹集目标金额\n    // 3. 支持金额\n    // 4. 众筹持续时间\n\n    // 1. 项目方地址\n    // 2. 参与人集合\n\n\n    address public manager; //项目发起方\n    address[] supporters; //支持人集合\n\n    string public projectName; //项目名称\n    uint256 public targetMoney; //目标金额\n    uint256 public supportMoney; //支持金额\n    uint256 public endTime;   //结束时间\n\n    //supportorFundings\n\n    SupportsToFundings s2f;\n\n\n    constructor(string _projectName, uint256 _targetMoney, uint256 _supportMoney, uint256 _duration, address _creator, SupportsToFundings _s2f) public {\n        // manager = msg.sender;\n        manager = _creator;\n\n        projectName = _projectName;\n        targetMoney = _targetMoney;\n        supportMoney = _supportMoney;\n        endTime = block.timestamp + _duration;  //结束时间 = 当前时间 + 持续时间\n\n        s2f = _s2f;  //将FundingFactory中的s2f合约实例传递给Funding的s2f\n    }\n\n\n    // 参与众筹逻辑：\n    // 1. 向合约转钱，转入指定金额（supportMoney）\n    // 2. 合约记录支持的投资人，在数组中记录。\n    // 3. 限定每个地址只能参与一次\n\n    //定义一个mapping，用于记录地址的参与状态\n    mapping(address => bool) supporterExistMap;\n\n    function support() public payable {\n        require(msg.value == supportMoney);\n        require(supporterExistMap[msg.sender] == false);\n\n        supporters.push(msg.sender);\n        supporterExistMap[msg.sender] = true;\n\n        //supportorFundings[msg.sender].push(this);\n        //supportorFundings[zhangsan] = address[funding1, funding3, funding7]\n        //supportorFundings[lisi] = address[funding4, funding10]\n\n        //支持的人， 支持的合约地址\n        s2f.setFunding(msg.sender, this);\n    }\n\n\n    //定义申请结构\n    struct Request {\n        string description; //花费申请： 吃饭\n        uint256 cost; //花费金额： 10wei\n        address sellerAddress; //卖家地址\n\n        Status status; // Voting, Approved, Completed ，这个申请的当前状态\n        uint256 votedCount;  //这个申请赞成的票数\n        mapping(address => bool) votedMap; //记录这个申请的投票人的投票状态，如果投过票，就不允许再次投票\n    }\n\n    enum Status {\n        Voting,\n        Approved,\n        Completed\n    }\n\n\n    Request[] public requests; //维护所有请求的集合\n\n    // 1. 定义一个请求\n    // 2. 将请求存放到全局的数组中\n    function createRequest(string _description, uint256 _cost, address _sellerAddress) onlyOwner public {\n        Request memory req = Request({\n            description : _description,\n            cost: _cost,\n            sellerAddress : _sellerAddress,\n\n            status: Status.Voting,\n            votedCount: 0\n            });\n\n        requests.push(req);\n    }\n\n\n    // 批准逻辑分析\n\n    // 1. 首先要确保是投资人\n    //     确保没有投过票\n    //     确保是投票状态\n\n    // 2. 对多个请求逐个进行批准，用下标逐个访问请求\n    // 3. 根据下标获取请求请求\n    // 4. 进行批准，就是对votedCount进行加1\n    // 5. votedMap[投票地址] = true\n    function approveRequest(uint256 _index) public {\n        // require(supporterExistMap[msg.sender] == true);\n        require(supporterExistMap[msg.sender]);\n\n        //必须是storage类型的，否则修改不会影响到requests数组中的值\n        Request storage req = requests[_index];\n\n        //确保没有投过票\n        require(req.votedMap[msg.sender] == false);\n\n        //确保是投票状态\n        require(req.status == Status.Voting);\n\n        req.votedCount++;\n\n        req.votedMap[msg.sender] = true;\n    }\n\n\n    // 1. 明确是哪个发给请求，使用下标进行获取\n    // 2. 确保赞成人数过半\n    // 3. 向卖家进行转账\n    // 4. 将这个请求的状态标识为Completed\n\n    function finalizeRequest(uint256 _index) onlyOwner public {\n        Request storage req = requests[_index];\n\n        //require(address(this).balance >= req.cost);\n        // 2. 确保赞成人数过半\n        require(req.votedCount * 2 > supporters.length);\n\n        // 3. 向卖家进行转账\n        req.sellerAddress.transfer(req.cost);\n\n        // 4. 将这个请求的状态标识为Completed\n        req.status = Status.Completed;\n\n        //delete requests[_index]; //可选，删除已经完成的请求\n    }\n\n\n\n\n\n    //+++++++++++++++++++++++++++++++++++++++\n\n    function getBalance() public view returns(uint256) {\n        return address(this).balance;\n    }\n\n    function getSupports() public view returns(address[]) {\n        return supporters;\n    }\n\n    modifier onlyOwner {\n        require(msg.sender == manager);\n        _;\n    }\n\n\n    function getSupportersCount() public view returns(uint256) {\n        return supporters.length;\n    }\n\n    function getLeftTime() public view returns(uint256) {\n        return endTime - now;\n    }\n\n    //返回花费请求的数量\n    function getRequestCount() public view returns(uint256) {\n        return requests.length;\n    }\n\n    //返回指定请求的详细信息\n    function getRequestByIndex(uint256 index) public view returns(string, uint256, address, bool, uint256, uint256) {\n        require(index < requests.length);\n\n        Request storage req = requests[index];\n\n        bool isVoted = req.votedMap[msg.sender];\n        return (req.description, req.cost, req.sellerAddress, isVoted, req.votedCount, uint(req.status));\n    }\n}\n\n",
  "sourcePath": "G:\\myreact\\r04\\contracts\\allContracts.sol",
  "compiler": {
    "name": "solc",
    "version": "0.4.25+commit.59dbf8f1.Emscripten.clang"
  },
  "schemaVersion": "2.0.2",
  "updatedAt": "2019-01-20T11:29:25.676Z"
}