{
  "contractName": "SupportsToFundings",
  "abi": [
    {
      "constant": false,
      "inputs": [
        {
          "name": "owner",
          "type": "address"
        },
        {
          "name": "funding",
          "type": "address"
        }
      ],
      "name": "setFunding",
      "outputs": [],
      "payable": false,
      "stateMutability": "nonpayable",
      "type": "function"
    },
    {
      "constant": true,
      "inputs": [
        {
          "name": "owner",
          "type": "address"
        }
      ],
      "name": "getFunding",
      "outputs": [
        {
          "name": "",
          "type": "address[]"
        }
      ],
      "payable": false,
      "stateMutability": "view",
      "type": "function"
    }
  ],
  "bytecode": "0x608060405234801561001057600080fd5b506102ea806100206000396000f30060806040526004361061004c576000357c0100000000000000000000000000000000000000000000000000000000900463ffffffff1680630b59d31914610051578063ad0a4f32146100b4575b600080fd5b34801561005d57600080fd5b506100b2600480360381019080803573ffffffffffffffffffffffffffffffffffffffff169060200190929190803573ffffffffffffffffffffffffffffffffffffffff16906020019092919050505061014c565b005b3480156100c057600080fd5b506100f5600480360381019080803573ffffffffffffffffffffffffffffffffffffffff1690602001909291905050506101f2565b6040518080602001828103825283818151815260200191508051906020019060200280838360005b8381101561013857808201518184015260208101905061011d565b505050509050019250505060405180910390f35b6000808373ffffffffffffffffffffffffffffffffffffffff1673ffffffffffffffffffffffffffffffffffffffff1681526020019081526020016000208190806001815401808255809150509060018203906000526020600020016000909192909190916101000a81548173ffffffffffffffffffffffffffffffffffffffff021916908373ffffffffffffffffffffffffffffffffffffffff160217905550505050565b60606000808373ffffffffffffffffffffffffffffffffffffffff1673ffffffffffffffffffffffffffffffffffffffff1681526020019081526020016000208054806020026020016040519081016040528092919081815260200182805480156102b257602002820191906000526020600020905b8160009054906101000a900473ffffffffffffffffffffffffffffffffffffffff1673ffffffffffffffffffffffffffffffffffffffff1681526020019060010190808311610268575b505050505090509190505600a165627a7a723058206a340a625d11f7fa857763ad9ad7b709ccd64e48810ba4594e43e7c6ae794d220029",
  "source": "pragma solidity ^0.4.24;\n\ncontract FundingFactory {\n    // 一、分析所有的众筹结构：\n    // 不用关心是谁创建的\n    address[ ] allFundings;\n\n    // 二、分析我发起的众筹结构：\n    // 1. 每一个人可以发起多个众筹 address[ ]\n    // 2. 每一个有自己的众筹集合\n\n    mapping(address => address[])   creatorFundings;\n\n    // 三、分析我参与的众筹结构：\n    //mapping(address => address[])   supportorFundings;\n    SupportsToFundings s2f;  //To -> 2  //0x0000000...\n\n    address public factoryManager; //工厂管理员\n\n    constructor()public {\n        factoryManager = msg.sender;\n        s2f = new SupportsToFundings();\n    }\n\n\n    // 创建合约方法（核心方法）\n    // 创建合约逻辑分析\n    // 1.  new 一个 Funding，传入对应数据：\"大黄蜂\", 400000, 1, 3600\n    // 2. 添加到creatorFundings中\n    // 3. 添加到allFundings中\n\n    function createFunding(string _projectName, uint256 _targetMoney, uint256 _supportMoney, uint256 _duration) public {\n\n\n        //把全局唯一的s2f合约，传递给Funding结构\n        //在Funding的support函数中调用setFunding方法，从而维护支持的众筹\n\n        address funding = new Funding(_projectName, _targetMoney, _supportMoney, _duration, msg.sender, s2f);\n\n        creatorFundings[msg.sender].push(funding);\n        allFundings.push(funding);\n    }\n\n    function getAllFundings() public view returns(address[]) {\n        return allFundings;\n    }\n\n    function getCreatorFundings() public view returns(address[]) {\n        return creatorFundings[msg.sender];\n    }\n\n    function getSupportorFundings() public view returns(address[]) {\n        return s2f.getFunding(msg.sender);\n    }\n}\n\n\n//+++++++++++++++++++++++++++++++++++++++++\n\ncontract SupportsToFundings {  //SupportsToFundings\n    mapping(address=>address[]) supportorFundings;  //众筹参与人的结构， Key是参与人，value是参与合约的集合\n\n    function setFunding(address owner, address funding) public { //参与一次众筹，key是参与人，value参与的众筹地址\n        supportorFundings[owner].push(funding);\n    }\n\n    function getFunding(address owner) public view returns(address[]){//key是参与人，value是所有参与的众筹的集合\n        return supportorFundings[owner];\n    }\n}\n\ncontract Funding {\n\n    // 1. 项目名字\n    // 2. 项目筹集目标金额\n    // 3. 支持金额\n    // 4. 众筹持续时间\n\n    // 1. 项目方地址\n    // 2. 参与人集合\n\n\n    address public manager; //项目发起方\n    address[] supporters; //支持人集合\n\n    string public projectName; //项目名称\n    uint256 public targetMoney; //目标金额\n    uint256 public supportMoney; //支持金额\n    uint256 public endTime;   //结束时间\n\n    //supportorFundings\n\n    SupportsToFundings s2f;\n\n\n    constructor(string _projectName, uint256 _targetMoney, uint256 _supportMoney, uint256 _duration, address _creator, SupportsToFundings _s2f) public {\n        // manager = msg.sender;\n        manager = _creator;\n\n        projectName = _projectName;\n        targetMoney = _targetMoney;\n        supportMoney = _supportMoney;\n        endTime = block.timestamp + _duration;  //结束时间 = 当前时间 + 持续时间\n\n        s2f = _s2f;  //将FundingFactory中的s2f合约实例传递给Funding的s2f\n    }\n\n\n    // 参与众筹逻辑：\n    // 1. 向合约转钱，转入指定金额（supportMoney）\n    // 2. 合约记录支持的投资人，在数组中记录。\n    // 3. 限定每个地址只能参与一次\n\n    //定义一个mapping，用于记录地址的参与状态\n    mapping(address => bool) supporterExistMap;\n\n    function support() public payable {\n        require(msg.value == supportMoney);\n        require(supporterExistMap[msg.sender] == false);\n\n        supporters.push(msg.sender);\n        supporterExistMap[msg.sender] = true;\n\n        //supportorFundings[msg.sender].push(this);\n        //supportorFundings[zhangsan] = address[funding1, funding3, funding7]\n        //supportorFundings[lisi] = address[funding4, funding10]\n\n        //支持的人， 支持的合约地址\n        s2f.setFunding(msg.sender, this);\n    }\n\n\n    //定义申请结构\n    struct Request {\n        string description; //花费申请： 吃饭\n        uint256 cost; //花费金额： 10wei\n        address sellerAddress; //卖家地址\n\n        Status status; // Voting, Approved, Completed ，这个申请的当前状态\n        uint256 votedCount;  //这个申请赞成的票数\n        mapping(address => bool) votedMap; //记录这个申请的投票人的投票状态，如果投过票，就不允许再次投票\n    }\n\n    enum Status {\n        Voting,\n        Approved,\n        Completed\n    }\n\n\n    Request[] public requests; //维护所有请求的集合\n\n    // 1. 定义一个请求\n    // 2. 将请求存放到全局的数组中\n    function createRequest(string _description, uint256 _cost, address _sellerAddress) onlyOwner public {\n        Request memory req = Request({\n            description : _description,\n            cost: _cost,\n            sellerAddress : _sellerAddress,\n\n            status: Status.Voting,\n            votedCount: 0\n            });\n\n        requests.push(req);\n    }\n\n\n    // 批准逻辑分析\n\n    // 1. 首先要确保是投资人\n    //     确保没有投过票\n    //     确保是投票状态\n\n    // 2. 对多个请求逐个进行批准，用下标逐个访问请求\n    // 3. 根据下标获取请求请求\n    // 4. 进行批准，就是对votedCount进行加1\n    // 5. votedMap[投票地址] = true\n    function approveRequest(uint256 _index) public {\n        // require(supporterExistMap[msg.sender] == true);\n        require(supporterExistMap[msg.sender]);\n\n        //必须是storage类型的，否则修改不会影响到requests数组中的值\n        Request storage req = requests[_index];\n\n        //确保没有投过票\n        require(req.votedMap[msg.sender] == false);\n\n        //确保是投票状态\n        require(req.status == Status.Voting);\n\n        req.votedCount++;\n\n        req.votedMap[msg.sender] = true;\n    }\n\n\n    // 1. 明确是哪个发给请求，使用下标进行获取\n    // 2. 确保赞成人数过半\n    // 3. 向卖家进行转账\n    // 4. 将这个请求的状态标识为Completed\n\n    function finalizeRequest(uint256 _index) onlyOwner public {\n        Request storage req = requests[_index];\n\n        //require(address(this).balance >= req.cost);\n        // 2. 确保赞成人数过半\n        require(req.votedCount * 2 > supporters.length);\n\n        // 3. 向卖家进行转账\n        req.sellerAddress.transfer(req.cost);\n\n        // 4. 将这个请求的状态标识为Completed\n        req.status = Status.Completed;\n\n        //delete requests[_index]; //可选，删除已经完成的请求\n    }\n\n\n\n\n\n    //+++++++++++++++++++++++++++++++++++++++\n\n    function getBalance() public view returns(uint256) {\n        return address(this).balance;\n    }\n\n    function getSupports() public view returns(address[]) {\n        return supporters;\n    }\n\n    modifier onlyOwner {\n        require(msg.sender == manager);\n        _;\n    }\n\n\n    function getSupportersCount() public view returns(uint256) {\n        return supporters.length;\n    }\n\n    function getLeftTime() public view returns(uint256) {\n        return endTime - now;\n    }\n\n    //返回花费请求的数量\n    function getRequestCount() public view returns(uint256) {\n        return requests.length;\n    }\n\n    //返回指定请求的详细信息\n    function getRequestByIndex(uint256 index) public view returns(string, uint256, address, bool, uint256, uint256) {\n        require(index < requests.length);\n\n        Request storage req = requests[index];\n\n        bool isVoted = req.votedMap[msg.sender];\n        return (req.description, req.cost, req.sellerAddress, isVoted, req.votedCount, uint(req.status));\n    }\n}\n\n",
  "sourcePath": "G:\\myreact\\r04\\contracts\\allContracts.sol",
  "compiler": {
    "name": "solc",
    "version": "0.4.25+commit.59dbf8f1.Emscripten.clang"
  },
  "schemaVersion": "2.0.2",
  "updatedAt": "2019-01-04T16:25:50.169Z"
}